{
  "contractName": "RetailContract",
  "abi": [
    {
      "inputs": [
        {
          "internalType": "uint256",
          "name": "",
          "type": "uint256"
        }
      ],
      "name": "productList",
      "outputs": [
        {
          "internalType": "string",
          "name": "product_section",
          "type": "string"
        },
        {
          "internalType": "string",
          "name": "product_name",
          "type": "string"
        },
        {
          "internalType": "uint256",
          "name": "product_id",
          "type": "uint256"
        },
        {
          "internalType": "uint256",
          "name": "product_cost",
          "type": "uint256"
        },
        {
          "internalType": "uint256",
          "name": "product_quantity",
          "type": "uint256"
        }
      ],
      "stateMutability": "view",
      "type": "function",
      "constant": true
    },
    {
      "inputs": [
        {
          "internalType": "string",
          "name": "_product_section",
          "type": "string"
        },
        {
          "internalType": "string",
          "name": "_product_name",
          "type": "string"
        },
        {
          "internalType": "uint256",
          "name": "_product_id",
          "type": "uint256"
        },
        {
          "internalType": "uint256",
          "name": "_product_cost",
          "type": "uint256"
        }
      ],
      "name": "addProduct",
      "outputs": [],
      "stateMutability": "nonpayable",
      "type": "function"
    },
    {
      "inputs": [
        {
          "internalType": "uint256",
          "name": "_productID",
          "type": "uint256"
        }
      ],
      "name": "getProductById",
      "outputs": [
        {
          "internalType": "string",
          "name": "product_section",
          "type": "string"
        },
        {
          "internalType": "string",
          "name": "product_name",
          "type": "string"
        },
        {
          "internalType": "uint256",
          "name": "product_cost",
          "type": "uint256"
        },
        {
          "internalType": "uint256",
          "name": "product_quantity",
          "type": "uint256"
        }
      ],
      "stateMutability": "view",
      "type": "function",
      "constant": true
    },
    {
      "inputs": [],
      "name": "getAllProducts",
      "outputs": [
        {
          "components": [
            {
              "internalType": "string",
              "name": "product_section",
              "type": "string"
            },
            {
              "internalType": "string",
              "name": "product_name",
              "type": "string"
            },
            {
              "internalType": "uint256",
              "name": "product_id",
              "type": "uint256"
            },
            {
              "internalType": "uint256",
              "name": "product_cost",
              "type": "uint256"
            },
            {
              "internalType": "uint256",
              "name": "product_quantity",
              "type": "uint256"
            }
          ],
          "internalType": "struct Product[]",
          "name": "",
          "type": "tuple[]"
        }
      ],
      "stateMutability": "view",
      "type": "function",
      "constant": true
    },
    {
      "inputs": [
        {
          "internalType": "string",
          "name": "_section",
          "type": "string"
        }
      ],
      "name": "getAllProductsBySection",
      "outputs": [
        {
          "components": [
            {
              "internalType": "string",
              "name": "product_section",
              "type": "string"
            },
            {
              "internalType": "string",
              "name": "product_name",
              "type": "string"
            },
            {
              "internalType": "uint256",
              "name": "product_id",
              "type": "uint256"
            },
            {
              "internalType": "uint256",
              "name": "product_cost",
              "type": "uint256"
            },
            {
              "internalType": "uint256",
              "name": "product_quantity",
              "type": "uint256"
            }
          ],
          "internalType": "struct Product[]",
          "name": "",
          "type": "tuple[]"
        }
      ],
      "stateMutability": "view",
      "type": "function",
      "constant": true
    },
    {
      "inputs": [
        {
          "internalType": "uint256",
          "name": "_id",
          "type": "uint256"
        }
      ],
      "name": "buyProductById",
      "outputs": [],
      "stateMutability": "nonpayable",
      "type": "function"
    },
    {
      "inputs": [
        {
          "internalType": "string",
          "name": "_product_section",
          "type": "string"
        },
        {
          "internalType": "string",
          "name": "_product_name",
          "type": "string"
        },
        {
          "internalType": "uint256",
          "name": "_product_id",
          "type": "uint256"
        },
        {
          "internalType": "uint256",
          "name": "_product_cost",
          "type": "uint256"
        }
      ],
      "name": "updateProductById",
      "outputs": [],
      "stateMutability": "nonpayable",
      "type": "function"
    }
  ],
  "bytecode": "0x608060405234801561001057600080fd5b506119d7806100206000396000f3fe608060405234801561001057600080fd5b506004361061007d5760003560e01c80633f70c2b41161005b5780633f70c2b4146100d8578063528c87d21461010b578063e145a89f1461013f578063e8fd521d1461016f5761007d565b806301cecd141461008257806302ee3a521461009e57806321c0d47c146100bc575b600080fd5b61009c60048036038101906100979190611190565b61018b565b005b6100a6610350565b6040516100b391906113fc565b60405180910390f35b6100d660048036038101906100d19190611190565b6104f1565b005b6100f260048036038101906100ed919061141e565b610817565b60405161010294939291906114a4565b60405180910390f35b6101256004803603810190610120919061141e565b6109a4565b6040516101369594939291906114f7565b60405180910390f35b61015960048036038101906101549190611558565b610afa565b60405161016691906113fc565b60405180910390f35b6101896004803603810190610184919061141e565b610cb9565b005b6003600081548092919061019e906115d0565b91905055506101ab610f74565b84816000018190525083816020018190525082816040018181525050818160600181815250506003548160800181815250508060008085815260200190815260200160002060008201518160000190816102059190611824565b50602082015181600101908161021b9190611824565b506040820151816002015560608201518160030155608082015181600401559050506002819080600181540180825580915050600190039060005260206000209060050201600090919091909150600082015181600001908161027e9190611824565b5060208201518160010190816102949190611824565b5060408201518160020155606082015181600301556080820151816004015550506001856040516102c59190611932565b908152602001604051809103902081908060018154018082558091505060019003906000526020600020906005020160009091909190915060008201518160000190816103129190611824565b5060208201518160010190816103289190611824565b5060408201518160020155606082015181600301556080820151816004015550505050505050565b60606002805480602002602001604051908101604052809291908181526020016000905b828210156104e857838290600052602060002090600502016040518060a00160405290816000820180546103a790611647565b80601f01602080910402602001604051908101604052809291908181526020018280546103d390611647565b80156104205780601f106103f557610100808354040283529160200191610420565b820191906000526020600020905b81548152906001019060200180831161040357829003601f168201915b5050505050815260200160018201805461043990611647565b80601f016020809104026020016040519081016040528092919081815260200182805461046590611647565b80156104b25780601f10610487576101008083540402835291602001916104b2565b820191906000526020600020905b81548152906001019060200180831161049557829003601f168201915b50505050508152602001600282015481526020016003820154815260200160048201548152505081526020019060010190610374565b50505050905090565b6104f9610f74565b848160000181905250838160200181905250828160400181815250508181606001818152505060005b6002805490508110156105df57836002828154811061054457610543611949565b5b906000526020600020906005020160020154036105cc5781600282815481106105705761056f611949565b5b906000526020600020906005020160008201518160000190816105939190611824565b5060208201518160010190816105a99190611824565b506040820151816002015560608201518160030155608082015181600401559050505b80806105d7906115d0565b915050610522565b506000806000858152602001908152602001600020600001805461060290611647565b80601f016020809104026020016040519081016040528092919081815260200182805461062e90611647565b801561067b5780601f106106505761010080835404028352916020019161067b565b820191906000526020600020905b81548152906001019060200180831161065e57829003601f168201915b5050505050905060005b6001826040516106959190611932565b90815260200160405180910390208054905081101561079657846001836040516106bf9190611932565b908152602001604051809103902082815481106106df576106de611949565b5b9060005260206000209060050201600201540361078357826001836040516107079190611932565b9081526020016040518091039020828154811061072757610726611949565b5b9060005260206000209060050201600082015181600001908161074a9190611824565b5060208201518160010190816107609190611824565b506040820151816002015560608201518160030155608082015181600401559050505b808061078e906115d0565b915050610685565b508160008086815260200190815260200160002060008201518160000190816107bf9190611824565b5060208201518160010190816107d59190611824565b506040820151816002015560608201518160030155608082015181600401559050506003600081548092919061080a90611978565b9190505550505050505050565b60608060008060008060008781526020019081526020016000206040518060a001604052908160008201805461084c90611647565b80601f016020809104026020016040519081016040528092919081815260200182805461087890611647565b80156108c55780601f1061089a576101008083540402835291602001916108c5565b820191906000526020600020905b8154815290600101906020018083116108a857829003601f168201915b505050505081526020016001820180546108de90611647565b80601f016020809104026020016040519081016040528092919081815260200182805461090a90611647565b80156109575780601f1061092c57610100808354040283529160200191610957565b820191906000526020600020905b81548152906001019060200180831161093a57829003601f168201915b505050505081526020016002820154815260200160038201548152602001600482015481525050905080600001518160200151826060015183608001519450945094509450509193509193565b600281815481106109b457600080fd5b90600052602060002090600502016000915090508060000180546109d790611647565b80601f0160208091040260200160405190810160405280929190818152602001828054610a0390611647565b8015610a505780601f10610a2557610100808354040283529160200191610a50565b820191906000526020600020905b815481529060010190602001808311610a3357829003601f168201915b505050505090806001018054610a6590611647565b80601f0160208091040260200160405190810160405280929190818152602001828054610a9190611647565b8015610ade5780601f10610ab357610100808354040283529160200191610ade565b820191906000526020600020905b815481529060010190602001808311610ac157829003601f168201915b5050505050908060020154908060030154908060040154905085565b6060600182604051610b0c9190611932565b9081526020016040518091039020805480602002602001604051908101604052809291908181526020016000905b82821015610cae57838290600052602060002090600502016040518060a0016040529081600082018054610b6d90611647565b80601f0160208091040260200160405190810160405280929190818152602001828054610b9990611647565b8015610be65780601f10610bbb57610100808354040283529160200191610be6565b820191906000526020600020905b815481529060010190602001808311610bc957829003601f168201915b50505050508152602001600182018054610bff90611647565b80601f0160208091040260200160405190810160405280929190818152602001828054610c2b90611647565b8015610c785780601f10610c4d57610100808354040283529160200191610c78565b820191906000526020600020905b815481529060010190602001808311610c5b57829003601f168201915b50505050508152602001600282015481526020016003820154815260200160048201548152505081526020019060010190610b3a565b505050509050919050565b60005b600280549050811015610d66578160028281548110610cde57610cdd611949565b5b90600052602060002090600502016002015403610d535760028181548110610d0957610d08611949565b5b906000526020600020906005020160008082016000610d289190610fa3565b600182016000610d389190610fa3565b60028201600090556003820160009055600482016000905550505b8080610d5e906115d0565b915050610cbc565b5060008060008381526020019081526020016000206000018054610d8990611647565b80601f0160208091040260200160405190810160405280929190818152602001828054610db590611647565b8015610e025780601f10610dd757610100808354040283529160200191610e02565b820191906000526020600020905b815481529060010190602001808311610de557829003601f168201915b5050505050905060005b600182604051610e1c9190611932565b908152602001604051809103902080549050811015610f0a5782600183604051610e469190611932565b90815260200160405180910390208281548110610e6657610e65611949565b5b90600052602060002090600502016002015403610ef757600182604051610e8d9190611932565b90815260200160405180910390208181548110610ead57610eac611949565b5b906000526020600020906005020160008082016000610ecc9190610fa3565b600182016000610edc9190610fa3565b60028201600090556003820160009055600482016000905550505b8080610f02906115d0565b915050610e0c565b5060008083815260200190815260200160002060008082016000610f2e9190610fa3565b600182016000610f3e9190610fa3565b600282016000905560038201600090556004820160009055505060036000815480929190610f6b90611978565b91905055505050565b6040518060a0016040528060608152602001606081526020016000815260200160008152602001600081525090565b508054610faf90611647565b6000825580601f10610fc15750610fe0565b601f016020900490600052602060002090810190610fdf9190610fe3565b5b50565b5b80821115610ffc576000816000905550600101610fe4565b5090565b6000604051905090565b600080fd5b600080fd5b600080fd5b600080fd5b6000601f19601f8301169050919050565b7f4e487b7100000000000000000000000000000000000000000000000000000000600052604160045260246000fd5b6110678261101e565b810181811067ffffffffffffffff821117156110865761108561102f565b5b80604052505050565b6000611099611000565b90506110a5828261105e565b919050565b600067ffffffffffffffff8211156110c5576110c461102f565b5b6110ce8261101e565b9050602081019050919050565b82818337600083830152505050565b60006110fd6110f8846110aa565b61108f565b90508281526020810184848401111561111957611118611019565b5b6111248482856110db565b509392505050565b600082601f83011261114157611140611014565b5b81356111518482602086016110ea565b91505092915050565b6000819050919050565b61116d8161115a565b811461117857600080fd5b50565b60008135905061118a81611164565b92915050565b600080600080608085870312156111aa576111a961100a565b5b600085013567ffffffffffffffff8111156111c8576111c761100f565b5b6111d48782880161112c565b945050602085013567ffffffffffffffff8111156111f5576111f461100f565b5b6112018782880161112c565b93505060406112128782880161117b565b92505060606112238782880161117b565b91505092959194509250565b600081519050919050565b600082825260208201905092915050565b6000819050602082019050919050565b600081519050919050565b600082825260208201905092915050565b60005b8381101561129557808201518184015260208101905061127a565b60008484015250505050565b60006112ac8261125b565b6112b68185611266565b93506112c6818560208601611277565b6112cf8161101e565b840191505092915050565b6112e38161115a565b82525050565b600060a083016000830151848203600086015261130682826112a1565b9150506020830151848203602086015261132082826112a1565b915050604083015161133560408601826112da565b50606083015161134860608601826112da565b50608083015161135b60808601826112da565b508091505092915050565b600061137283836112e9565b905092915050565b6000602082019050919050565b60006113928261122f565b61139c818561123a565b9350836020820285016113ae8561124b565b8060005b858110156113ea57848403895281516113cb8582611366565b94506113d68361137a565b925060208a019950506001810190506113b2565b50829750879550505050505092915050565b600060208201905081810360008301526114168184611387565b905092915050565b6000602082840312156114345761143361100a565b5b60006114428482850161117b565b91505092915050565b600082825260208201905092915050565b60006114678261125b565b611471818561144b565b9350611481818560208601611277565b61148a8161101e565b840191505092915050565b61149e8161115a565b82525050565b600060808201905081810360008301526114be818761145c565b905081810360208301526114d2818661145c565b90506114e16040830185611495565b6114ee6060830184611495565b95945050505050565b600060a0820190508181036000830152611511818861145c565b90508181036020830152611525818761145c565b90506115346040830186611495565b6115416060830185611495565b61154e6080830184611495565b9695505050505050565b60006020828403121561156e5761156d61100a565b5b600082013567ffffffffffffffff81111561158c5761158b61100f565b5b6115988482850161112c565b91505092915050565b7f4e487b7100000000000000000000000000000000000000000000000000000000600052601160045260246000fd5b60006115db8261115a565b91507fffffffffffffffffffffffffffffffffffffffffffffffffffffffffffffffff820361160d5761160c6115a1565b5b600182019050919050565b7f4e487b7100000000000000000000000000000000000000000000000000000000600052602260045260246000fd5b6000600282049050600182168061165f57607f821691505b60208210810361167257611671611618565b5b50919050565b60008190508160005260206000209050919050565b60006020601f8301049050919050565b600082821b905092915050565b6000600883026116da7fffffffffffffffffffffffffffffffffffffffffffffffffffffffffffffffff8261169d565b6116e4868361169d565b95508019841693508086168417925050509392505050565b6000819050919050565b600061172161171c6117178461115a565b6116fc565b61115a565b9050919050565b6000819050919050565b61173b83611706565b61174f61174782611728565b8484546116aa565b825550505050565b600090565b611764611757565b61176f818484611732565b505050565b5b818110156117935761178860008261175c565b600181019050611775565b5050565b601f8211156117d8576117a981611678565b6117b28461168d565b810160208510156117c1578190505b6117d56117cd8561168d565b830182611774565b50505b505050565b600082821c905092915050565b60006117fb600019846008026117dd565b1980831691505092915050565b600061181483836117ea565b9150826002028217905092915050565b61182d8261125b565b67ffffffffffffffff8111156118465761184561102f565b5b6118508254611647565b61185b828285611797565b600060209050601f83116001811461188e576000841561187c578287015190505b6118868582611808565b8655506118ee565b601f19841661189c86611678565b60005b828110156118c45784890151825560018201915060208501945060208101905061189f565b868310156118e157848901516118dd601f8916826117ea565b8355505b6001600288020188555050505b505050505050565b600081905092915050565b600061190c8261125b565b61191681856118f6565b9350611926818560208601611277565b80840191505092915050565b600061193e8284611901565b915081905092915050565b7f4e487b7100000000000000000000000000000000000000000000000000000000600052603260045260246000fd5b60006119838261115a565b915060008203611996576119956115a1565b5b60018203905091905056fea264697066735822122075aa126c9aae22a7b2f267ecf68d641c8a2ee820a4531937fcc606bd613246e864736f6c63430008130033",
  "immutableReferences": {},
  "source": "// SPDX-License-Identifier: UNLICENSED\npragma solidity ^0.8.0;\n\nstruct Product {\n    string product_section;\n    string product_name;\n    uint product_id;\n    uint product_cost;\n    uint product_quantity;\n}\n\ncontract RetailContract {\n    mapping(uint => Product) products;\n    mapping(string => Product[]) productSection;\n    Product[] public productList;\n    //uint[] pIdKey;\n    uint count;\n\n    function addProduct(\n        string memory _product_section,\n        string memory _product_name,\n        uint _product_id,\n        uint _product_cost\n    ) public {\n        count++;\n        Product memory p;\n        p.product_section = _product_section;\n        p.product_name = _product_name;\n        p.product_id = _product_id;\n        p.product_cost = _product_cost;\n        p.product_quantity = count;\n        products[_product_id] = p;\n        productList.push(p);\n        productSection[_product_section].push(p);\n        //pIdKey.push(_product_id);\n    }\n\n    function getProductById(\n        uint _productID\n    )\n        public\n        view\n        returns (\n            string memory product_section,\n            string memory product_name,\n            uint product_cost,\n            uint product_quantity\n        )\n    {\n        Product memory p = products[_productID];\n        return (\n            p.product_section,\n            p.product_name,\n            p.product_cost,\n            p.product_quantity\n        );\n    }\n\n    function getAllProducts() public view returns (Product[] memory) {\n        return productList;\n    }\n\n    function getAllProductsBySection(\n        string memory _section\n    ) public view returns (Product[] memory) {\n        return productSection[_section];\n    }\n\n    function buyProductById(uint _id) public {\n        //delete products[_id];\n        for (uint i = 0; i < productList.length; i++) {\n            if (productList[i].product_id == _id) {\n                delete productList[i];\n            }\n        }\n\n        string memory sec = products[_id].product_section;\n        for (uint i = 0; i < productSection[sec].length; i++) {\n            if (productSection[sec][i].product_id == _id) {\n                delete productSection[sec][i];\n            }\n        }\n        delete products[_id];\n\n        //delete productSection[products[_id].product_section];\n        count--;\n    }\n    function updateProductById(string memory _product_section,string memory _product_name,uint _product_id,uint _product_cost) public{\n        \n        Product memory p;\n        p.product_section=_product_section;\n        p.product_name=_product_name;\n        p.product_id=_product_id;\n        p.product_cost=_product_cost;\n        for(uint i=0;i<productList.length;i++){\n            if(productList[i].product_id==_product_id){\n                productList[i]=p;\n            }\n        }\n\n        string memory sec=products[_product_id].product_section;\n        for(uint i=0;i<productSection[sec].length;i++){\n            if(productSection[sec][i].product_id==_product_id){\n                 productSection[sec][i]=p;\n            }\n        }\n        products[_product_id]=p;\n\n        \n        count--;\n    }\n}\n",
  "sourcePath": "/home/ravi/ravi-test/learn-web3/contracts/RetailContract.sol",
  "compiler": {
    "name": "solc",
    "version": "0.8.19+commit.7dd6d404.Emscripten.clang"
  },
  "schemaVersion": "3.4.13",
  "updatedAt": "2023-03-22T14:56:27.974Z",
  "networkType": "ethereum",
  "devdoc": {
    "kind": "dev",
    "methods": {},
    "version": 1
  },
  "userdoc": {
    "kind": "user",
    "methods": {},
    "version": 1
  }
}